{
  "_format": "hh-sol-artifact-1",
  "contractName": "Logic1",
  "sourceName": "contracts/Proxy.sol",
  "abi": [
    {
      "inputs": [
        {
          "internalType": "uint256",
          "name": "_x",
          "type": "uint256"
        }
      ],
      "name": "changeX",
      "outputs": [],
      "stateMutability": "nonpayable",
      "type": "function"
    }
  ],
  "bytecode": "0x60806040526000805534801561001457600080fd5b5060e3806100236000396000f3fe6080604052348015600f57600080fd5b506004361060285760003560e01c80639435337e14602d575b600080fd5b60436004803603810190603f91906085565b6045565b005b8060008190555050565b600080fd5b6000819050919050565b6065816054565b8114606f57600080fd5b50565b600081359050607f81605e565b92915050565b6000602082840312156098576097604f565b5b600060a4848285016072565b9150509291505056fea2646970667358221220893563aca506722aa0bf34f6e707ca3071070770926b2a2f56e84c7f9c6c1af764736f6c63430008110033",
  "linkReferences": {},
  "deployedLinkReferences": {}
}