{
  "_format": "hh-sol-artifact-1",
  "contractName": "Logic2",
  "sourceName": "contracts/Proxy.sol",
  "abi": [
    {
      "inputs": [
        {
          "internalType": "uint256",
          "name": "_x",
          "type": "uint256"
        }
      ],
      "name": "changeX",
      "outputs": [],
      "stateMutability": "nonpayable",
      "type": "function"
    },
    {
      "inputs": [],
      "name": "tripleX",
      "outputs": [],
      "stateMutability": "nonpayable",
      "type": "function"
    }
  ],
  "bytecode": "0x60806040526000805534801561001457600080fd5b506101a1806100246000396000f3fe608060405234801561001057600080fd5b50600436106100365760003560e01c80638b9097581461003b5780639435337e14610045575b600080fd5b610043610061565b005b61005f600480360381019061005a91906100cd565b61007c565b005b60036000808282546100739190610129565b92505081905550565b6002816100899190610129565b60008190555050565b600080fd5b6000819050919050565b6100aa81610097565b81146100b557600080fd5b50565b6000813590506100c7816100a1565b92915050565b6000602082840312156100e3576100e2610092565b5b60006100f1848285016100b8565b91505092915050565b7f4e487b7100000000000000000000000000000000000000000000000000000000600052601160045260246000fd5b600061013482610097565b915061013f83610097565b925082820261014d81610097565b91508282048414831517610164576101636100fa565b5b509291505056fea26469706673582212202ab3b468f5b1dba92845934b17a96a90dd545528e40bc4d685eeebb20a68bb8b64736f6c63430008110033",
  "linkReferences": {},
  "deployedLinkReferences": {}
}