{
  "_format": "hh-sol-artifact-1",
  "contractName": "Proxy",
  "sourceName": "contracts/Proxy.sol",
  "abi": [
    {
      "stateMutability": "nonpayable",
      "type": "fallback"
    },
    {
      "inputs": [
        {
          "internalType": "address",
          "name": "_implementation",
          "type": "address"
        }
      ],
      "name": "changeImplementation",
      "outputs": [],
      "stateMutability": "nonpayable",
      "type": "function"
    },
    {
      "inputs": [],
      "name": "x",
      "outputs": [
        {
          "internalType": "uint256",
          "name": "",
          "type": "uint256"
        }
      ],
      "stateMutability": "view",
      "type": "function"
    }
  ],
  "bytecode": "0x60806040526000805534801561001457600080fd5b506103be806100246000396000f3fe608060405234801561001057600080fd5b506004361061003a5760003560e01c80630c55699c1461013757806317a68dd8146101555761003b565b5b60006100667f203fb533ca33b44a940def229278ab4c8ace1399749cb1826b97e4d81be54a7c610171565b60000160009054906101000a900473ffffffffffffffffffffffffffffffffffffffff1673ffffffffffffffffffffffffffffffffffffffff166000366040516100b192919061022e565b600060405180830381855af49150503d80600081146100ec576040519150601f19603f3d011682016040523d82523d6000602084013e6100f1565b606091505b5050905080610135576040517f08c379a000000000000000000000000000000000000000000000000000000000815260040161012c906102a4565b60405180910390fd5b005b61013f61017b565b60405161014c91906102dd565b60405180910390f35b61016f600480360381019061016a919061035b565b610181565b005b6000819050919050565b60005481565b806101ab7f203fb533ca33b44a940def229278ab4c8ace1399749cb1826b97e4d81be54a7c610171565b60000160006101000a81548173ffffffffffffffffffffffffffffffffffffffff021916908373ffffffffffffffffffffffffffffffffffffffff16021790555050565b600081905092915050565b82818337600083830152505050565b600061021583856101ef565b93506102228385846101fa565b82840190509392505050565b600061023b828486610209565b91508190509392505050565b600082825260208201905092915050565b7f5472616e73616374696f6e204661696c65640000000000000000000000000000600082015250565b600061028e601283610247565b915061029982610258565b602082019050919050565b600060208201905081810360008301526102bd81610281565b9050919050565b6000819050919050565b6102d7816102c4565b82525050565b60006020820190506102f260008301846102ce565b92915050565b600080fd5b600073ffffffffffffffffffffffffffffffffffffffff82169050919050565b6000610328826102fd565b9050919050565b6103388161031d565b811461034357600080fd5b50565b6000813590506103558161032f565b92915050565b600060208284031215610371576103706102f8565b5b600061037f84828501610346565b9150509291505056fea2646970667358221220fcb45b7f28778c11fc0e8e73fa0517281011ace99fe18b098a203eb4c7b706dc64736f6c63430008110033",
  "linkReferences": {},
  "deployedLinkReferences": {}
}