{"contracts/Proxy.sol":{"Logic2":{"abi":[{"inputs":[{"internalType":"uint256","name":"_x","type":"uint256"}],"name":"changeX","outputs":[],"stateMutability":"nonpayable","type":"function"},{"inputs":[],"name":"tripleX","outputs":[],"stateMutability":"nonpayable","type":"function"}],"evm":{"bytecode":{"linkReferences":{},"object":"60806040526000805534801561001457600080fd5b506101a1806100246000396000f3fe608060405234801561001057600080fd5b50600436106100365760003560e01c80638b9097581461003b5780639435337e14610045575b600080fd5b610043610061565b005b61005f600480360381019061005a91906100cd565b61007c565b005b60036000808282546100739190610129565b92505081905550565b6002816100899190610129565b60008190555050565b600080fd5b6000819050919050565b6100aa81610097565b81146100b557600080fd5b50565b6000813590506100c7816100a1565b92915050565b6000602082840312156100e3576100e2610092565b5b60006100f1848285016100b8565b91505092915050565b7f4e487b7100000000000000000000000000000000000000000000000000000000600052601160045260246000fd5b600061013482610097565b915061013f83610097565b925082820261014d81610097565b91508282048414831517610164576101636100fa565b5b509291505056fea26469706673582212202ab3b468f5b1dba92845934b17a96a90dd545528e40bc4d685eeebb20a68bb8b64736f6c63430008110033","opcodes":"PUSH1 0x80 PUSH1 0x40 MSTORE PUSH1 0x0 DUP1 SSTORE CALLVALUE DUP1 ISZERO PUSH2 0x14 JUMPI PUSH1 0x0 DUP1 REVERT JUMPDEST POP PUSH2 0x1A1 DUP1 PUSH2 0x24 PUSH1 0x0 CODECOPY PUSH1 0x0 RETURN INVALID PUSH1 0x80 PUSH1 0x40 MSTORE CALLVALUE DUP1 ISZERO PUSH2 0x10 JUMPI PUSH1 0x0 DUP1 REVERT JUMPDEST POP PUSH1 0x4 CALLDATASIZE LT PUSH2 0x36 JUMPI PUSH1 0x0 CALLDATALOAD PUSH1 0xE0 SHR DUP1 PUSH4 0x8B909758 EQ PUSH2 0x3B JUMPI DUP1 PUSH4 0x9435337E EQ PUSH2 0x45 JUMPI JUMPDEST PUSH1 0x0 DUP1 REVERT JUMPDEST PUSH2 0x43 PUSH2 0x61 JUMP JUMPDEST STOP JUMPDEST PUSH2 0x5F PUSH1 0x4 DUP1 CALLDATASIZE SUB DUP2 ADD SWAP1 PUSH2 0x5A SWAP2 SWAP1 PUSH2 0xCD JUMP JUMPDEST PUSH2 0x7C JUMP JUMPDEST STOP JUMPDEST PUSH1 0x3 PUSH1 0x0 DUP1 DUP3 DUP3 SLOAD PUSH2 0x73 SWAP2 SWAP1 PUSH2 0x129 JUMP JUMPDEST SWAP3 POP POP DUP2 SWAP1 SSTORE POP JUMP JUMPDEST PUSH1 0x2 DUP2 PUSH2 0x89 SWAP2 SWAP1 PUSH2 0x129 JUMP JUMPDEST PUSH1 0x0 DUP2 SWAP1 SSTORE POP POP JUMP JUMPDEST PUSH1 0x0 DUP1 REVERT JUMPDEST PUSH1 0x0 DUP2 SWAP1 POP SWAP2 SWAP1 POP JUMP JUMPDEST PUSH2 0xAA DUP2 PUSH2 0x97 JUMP JUMPDEST DUP2 EQ PUSH2 0xB5 JUMPI PUSH1 0x0 DUP1 REVERT JUMPDEST POP JUMP JUMPDEST PUSH1 0x0 DUP2 CALLDATALOAD SWAP1 POP PUSH2 0xC7 DUP2 PUSH2 0xA1 JUMP JUMPDEST SWAP3 SWAP2 POP POP JUMP JUMPDEST PUSH1 0x0 PUSH1 0x20 DUP3 DUP5 SUB SLT ISZERO PUSH2 0xE3 JUMPI PUSH2 0xE2 PUSH2 0x92 JUMP JUMPDEST JUMPDEST PUSH1 0x0 PUSH2 0xF1 DUP5 DUP3 DUP6 ADD PUSH2 0xB8 JUMP JUMPDEST SWAP2 POP POP SWAP3 SWAP2 POP POP JUMP JUMPDEST PUSH32 0x4E487B7100000000000000000000000000000000000000000000000000000000 PUSH1 0x0 MSTORE PUSH1 0x11 PUSH1 0x4 MSTORE PUSH1 0x24 PUSH1 0x0 REVERT JUMPDEST PUSH1 0x0 PUSH2 0x134 DUP3 PUSH2 0x97 JUMP JUMPDEST SWAP2 POP PUSH2 0x13F DUP4 PUSH2 0x97 JUMP JUMPDEST SWAP3 POP DUP3 DUP3 MUL PUSH2 0x14D DUP2 PUSH2 0x97 JUMP JUMPDEST SWAP2 POP DUP3 DUP3 DIV DUP5 EQ DUP4 ISZERO OR PUSH2 0x164 JUMPI PUSH2 0x163 PUSH2 0xFA JUMP JUMPDEST JUMPDEST POP SWAP3 SWAP2 POP POP JUMP INVALID LOG2 PUSH5 0x6970667358 0x22 SLT KECCAK256 0x2A 0xB3 0xB4 PUSH9 0xF5B1DBA92845934B17 0xA9 PUSH11 0x90DD545528E40BC4D685EE 0xEB 0xB2 EXP PUSH9 0xBB8B64736F6C634300 ADDMOD GT STOP CALLER "},"methodIdentifiers":{"changeX(uint256)":"9435337e","tripleX()":"8b909758"}}}}}